{
  "_format": "hh-sol-artifact-1",
  "contractName": "ERC6551Registry",
  "sourceName": "contracts/ERC6551Registry.sol",
  "abi": [
    {
      "anonymous": false,
      "inputs": [
        {
          "indexed": true,
          "internalType": "address",
          "name": "account",
          "type": "address"
        },
        {
          "indexed": true,
          "internalType": "address",
          "name": "implementation",
          "type": "address"
        },
        {
          "indexed": false,
          "internalType": "uint256",
          "name": "chainId",
          "type": "uint256"
        },
        {
          "indexed": true,
          "internalType": "address",
          "name": "tokenContract",
          "type": "address"
        },
        {
          "indexed": false,
          "internalType": "uint256",
          "name": "tokenId",
          "type": "uint256"
        },
        {
          "indexed": false,
          "internalType": "uint256",
          "name": "salt",
          "type": "uint256"
        }
      ],
      "name": "AccountCreated",
      "type": "event"
    },
    {
      "inputs": [
        {
          "internalType": "address",
          "name": "implementation",
          "type": "address"
        },
        {
          "internalType": "uint256",
          "name": "chainId",
          "type": "uint256"
        },
        {
          "internalType": "address",
          "name": "tokenContract",
          "type": "address"
        },
        {
          "internalType": "uint256",
          "name": "tokenId",
          "type": "uint256"
        },
        {
          "internalType": "uint256",
          "name": "salt",
          "type": "uint256"
        }
      ],
      "name": "account",
      "outputs": [
        {
          "internalType": "address",
          "name": "",
          "type": "address"
        }
      ],
      "stateMutability": "view",
      "type": "function"
    },
    {
      "inputs": [
        {
          "internalType": "bytes32",
          "name": "",
          "type": "bytes32"
        }
      ],
      "name": "accounts",
      "outputs": [
        {
          "internalType": "address",
          "name": "",
          "type": "address"
        }
      ],
      "stateMutability": "view",
      "type": "function"
    },
    {
      "inputs": [
        {
          "internalType": "address",
          "name": "implementation",
          "type": "address"
        }
      ],
      "name": "addImplementation",
      "outputs": [],
      "stateMutability": "nonpayable",
      "type": "function"
    },
    {
      "inputs": [
        {
          "internalType": "address",
          "name": "implementation",
          "type": "address"
        },
        {
          "internalType": "uint256",
          "name": "chainId",
          "type": "uint256"
        },
        {
          "internalType": "address",
          "name": "tokenContract",
          "type": "address"
        },
        {
          "internalType": "uint256",
          "name": "tokenId",
          "type": "uint256"
        },
        {
          "internalType": "uint256",
          "name": "salt",
          "type": "uint256"
        },
        {
          "internalType": "bytes",
          "name": "initData",
          "type": "bytes"
        }
      ],
      "name": "createAccount",
      "outputs": [
        {
          "internalType": "address",
          "name": "",
          "type": "address"
        }
      ],
      "stateMutability": "nonpayable",
      "type": "function"
    },
    {
      "inputs": [
        {
          "internalType": "address",
          "name": "",
          "type": "address"
        }
      ],
      "name": "implementations",
      "outputs": [
        {
          "internalType": "bool",
          "name": "",
          "type": "bool"
        }
      ],
      "stateMutability": "view",
      "type": "function"
    },
    {
      "inputs": [
        {
          "internalType": "address",
          "name": "implementation",
          "type": "address"
        }
      ],
      "name": "removeImplementation",
      "outputs": [],
      "stateMutability": "nonpayable",
      "type": "function"
    }
  ],
  "bytecode": "0x608060405234801561001057600080fd5b5061051a806100206000396000f3fe608060405234801561001057600080fd5b50600436106100625760003560e01c806322175a32146100675780635e9bc53614610098578063bc529c43146100c8578063c6e2a400146100f1578063da7323b314610126578063f79eb32c14610139575b600080fd5b61009661007536600461036f565b6001600160a01b03166000908152600160205260409020805460ff19169055565b005b6100ab6100a6366004610391565b61016c565b6040516001600160a01b0390911681526020015b60405180910390f35b6100ab6100d63660046103df565b6000602081905290815260409020546001600160a01b031681565b6100966100ff36600461036f565b6001600160a01b03166000908152600160208190526040909120805460ff19169091179055565b6100ab6101343660046103f8565b6101ee565b61015c61014736600461036f565b60016020526000908152604090205460ff1681565b60405190151581526020016100bf565b6000808260405160200161018291815260200190565b604051602081830303815290604052805190602001209050600087878787856040516020016101b59594939291906104a8565b60408051808303601f1901815291815281516020928301206000908152918290529020546001600160a01b031698975050505050505050565b6001600160a01b03871660009081526001602052604081205460ff166102535760405162461bcd60e51b815260206004820152601660248201527524b73b30b634b21034b6b83632b6b2b73a30ba34b7b760511b604482015260640160405180910390fd5b60008460405160200161026891815260200190565b6040516020818303038152906040528051906020012090506000898989898560405160200161029b9594939291906104a8565b60408051601f19818403018152918152815160209283012060008181529283905291205490915081906001600160a01b0316610345576000828152602081815260409182902080546001600160a01b0319166001600160a01b0385811691821790925583518e81529283018c90529282018a90528b811692908e16917f07fba7bba1191da7ee1155dcfa0030701c9c9a9cc34a93b991fc6fd0c9268d8f9060600160405180910390a45b9a9950505050505050505050565b80356001600160a01b038116811461036a57600080fd5b919050565b60006020828403121561038157600080fd5b61038a82610353565b9392505050565b600080600080600060a086880312156103a957600080fd5b6103b286610353565b9450602086013593506103c760408701610353565b94979396509394606081013594506080013592915050565b6000602082840312156103f157600080fd5b5035919050565b600080600080600080600060c0888a03121561041357600080fd5b61041c88610353565b96506020880135955061043160408901610353565b9450606088013593506080880135925060a08801356001600160401b038082111561045b57600080fd5b818a0191508a601f83011261046f57600080fd5b81358181111561047e57600080fd5b8b602082850101111561049057600080fd5b60208301945080935050505092959891949750929550565b6001600160601b0319606096871b8116825260148201959095529290941b9092166034820152604881019190915260688101919091526088019056fea2646970667358221220f54365e35a093de94c8efb5dcd6c907219ea82778b47c3becc41aa31769e62eb64736f6c63430008180033",
  "linkReferences": {},
  "deployedLinkReferences": {}
}