{
  "_format": "hh-sol-artifact-1",
  "contractName": "ERC6551Account",
  "sourceName": "contracts/ERC6551Account.sol",
  "abi": [
    {
      "inputs": [],
      "stateMutability": "nonpayable",
      "type": "constructor"
    },
    {
      "inputs": [],
      "name": "InvalidSignature",
      "type": "error"
    },
    {
      "inputs": [],
      "name": "InvalidSigner",
      "type": "error"
    },
    {
      "inputs": [],
      "name": "NotAuthorized",
      "type": "error"
    },
    {
      "inputs": [],
      "name": "chainId",
      "outputs": [
        {
          "internalType": "uint256",
          "name": "",
          "type": "uint256"
        }
      ],
      "stateMutability": "view",
      "type": "function"
    },
    {
      "inputs": [
        {
          "internalType": "address",
          "name": "to",
          "type": "address"
        },
        {
          "internalType": "uint256",
          "name": "value",
          "type": "uint256"
        },
        {
          "internalType": "bytes",
          "name": "data",
          "type": "bytes"
        }
      ],
      "name": "executeCall",
      "outputs": [
        {
          "internalType": "bytes",
          "name": "result",
          "type": "bytes"
        }
      ],
      "stateMutability": "payable",
      "type": "function"
    },
    {
      "inputs": [],
      "name": "implementation",
      "outputs": [
        {
          "internalType": "address",
          "name": "",
          "type": "address"
        }
      ],
      "stateMutability": "view",
      "type": "function"
    },
    {
      "inputs": [
        {
          "internalType": "bytes32",
          "name": "hash",
          "type": "bytes32"
        },
        {
          "internalType": "bytes",
          "name": "signature",
          "type": "bytes"
        }
      ],
      "name": "isValidSignature",
      "outputs": [
        {
          "internalType": "bytes4",
          "name": "magicValue",
          "type": "bytes4"
        }
      ],
      "stateMutability": "view",
      "type": "function"
    },
    {
      "inputs": [],
      "name": "owner",
      "outputs": [
        {
          "internalType": "address",
          "name": "",
          "type": "address"
        }
      ],
      "stateMutability": "view",
      "type": "function"
    },
    {
      "inputs": [],
      "name": "state",
      "outputs": [
        {
          "internalType": "uint256",
          "name": "",
          "type": "uint256"
        }
      ],
      "stateMutability": "view",
      "type": "function"
    },
    {
      "inputs": [
        {
          "internalType": "bytes4",
          "name": "interfaceId",
          "type": "bytes4"
        }
      ],
      "name": "supportsInterface",
      "outputs": [
        {
          "internalType": "bool",
          "name": "",
          "type": "bool"
        }
      ],
      "stateMutability": "pure",
      "type": "function"
    },
    {
      "inputs": [],
      "name": "token",
      "outputs": [
        {
          "internalType": "uint256",
          "name": "chainId_",
          "type": "uint256"
        },
        {
          "internalType": "address",
          "name": "tokenContract_",
          "type": "address"
        },
        {
          "internalType": "uint256",
          "name": "tokenId_",
          "type": "uint256"
        }
      ],
      "stateMutability": "view",
      "type": "function"
    },
    {
      "inputs": [],
      "name": "tokenContract",
      "outputs": [
        {
          "internalType": "address",
          "name": "",
          "type": "address"
        }
      ],
      "stateMutability": "view",
      "type": "function"
    },
    {
      "inputs": [],
      "name": "tokenId",
      "outputs": [
        {
          "internalType": "uint256",
          "name": "",
          "type": "uint256"
        }
      ],
      "stateMutability": "view",
      "type": "function"
    },
    {
      "stateMutability": "payable",
      "type": "receive"
    }
  ],
  "bytecode": "0x61010060405234801561001157600080fd5b503060808190524660a0819052600060c081905260e081905280610a5e61007382396000818161010501526107a401526000818161014701526107820152600081816101dc015281816103290152610760015260006101930152610a5e6000f3fe6080604052600436106100855760003560e01c806301ffc9a7146100915780631626ba7e146100c657806317d70f7c146100f357806355a373d6146101355780635c60da1b146101815780638da5cb5b146101b55780639a8a0592146101ca5780639e5d4c49146101fe578063c19d93fb1461021e578063fc0c546a1461023457600080fd5b3661008c57005b600080fd5b34801561009d57600080fd5b506100b16100ac3660046107c6565b61026c565b60405190151581526020015b60405180910390f35b3480156100d257600080fd5b506100e66100e1366004610838565b6102a3565b6040516100bd9190610883565b3480156100ff57600080fd5b506101277f000000000000000000000000000000000000000000000000000000000000000081565b6040519081526020016100bd565b34801561014157600080fd5b506101697f000000000000000000000000000000000000000000000000000000000000000081565b6040516001600160a01b0390911681526020016100bd565b34801561018d57600080fd5b506101697f000000000000000000000000000000000000000000000000000000000000000081565b3480156101c157600080fd5b50610169610313565b3480156101d657600080fd5b506101277f000000000000000000000000000000000000000000000000000000000000000081565b61021161020c3660046108b0565b61054a565b6040516100bd919061090b565b34801561022a57600080fd5b5061012760005481565b34801561024057600080fd5b50610249610614565b604080519384526001600160a01b039092166020840152908201526060016100bd565b60006001600160e01b031982166301ffc9a760e01b148061029d57506001600160e01b03198216630b135d3f60e11b145b92915050565b6000806102ee6102b1610313565b8686868080601f01602080910402602001604051908101604052809392919081815260200183838082843760009201919091525061062c92505050565b905080156103065750630b135d3f60e11b905061030c565b60009150505b9392505050565b60008060008061032161075e565b9250925092507f00000000000000000000000000000000000000000000000000000000000000008314610358576000935050505090565b6040516301ffc9a760e01b81526001600160a01b038316906301ffc9a79061038b906380ac58cd60e01b90600401610883565b602060405180830381865afa1580156103a8573d6000803e3d6000fd5b505050506040513d601f19601f820116820180604052508101906103cc919061095a565b15610442576040516331a9108f60e11b8152600481018290526001600160a01b03831690636352211e90602401602060405180830381865afa158015610416573d6000803e3d6000fd5b505050506040513d601f19601f8201168201806040525081019061043a919061097c565b935050505090565b6040516301ffc9a760e01b81526001600160a01b038316906301ffc9a79061047590636cdb3d1360e11b90600401610883565b602060405180830381865afa158015610492573d6000803e3d6000fd5b505050506040513d601f19601f820116820180604052508101906104b6919061095a565b1561054057604051627eeac760e11b8152336004820152602481018290526000906001600160a01b0384169062fdd58e90604401602060405180830381865afa158015610507573d6000803e3d6000fd5b505050506040513d601f19601f8201168201806040525081019061052b9190610999565b1161053757600061043a565b33935050505090565b6000935050505090565b6060610554610313565b6001600160a01b0316336001600160a01b0316146105855760405163ea8e4eb560e01b815260040160405180910390fd5b6000808154610593906109c8565b919050819055506000856001600160a01b03168585856040516105b79291906109e1565b60006040518083038185875af1925050503d80600081146105f4576040519150601f19603f3d011682016040523d82523d6000602084013e6105f9565b606091505b50925090508061060b57815160208301fd5b50949350505050565b600080600061062161075e565b925092509250909192565b600081516041036106c15760008060006020850151925060408501519150606085015160001a90506001868285856040516000815260200160405260405161067794939291906109f1565b6020604051602081039080840390855afa158015610699573d6000803e3d6000fd5b505050602060405103516001600160a01b0316876001600160a01b031614935050505061030c565b815160400361075657602082015160408301516001856106e660ff84901c601b610a0f565b60408051600081526020019081905261070d92919086906001600160ff1b038716906109f1565b6020604051602081039080840390855afa15801561072f573d6000803e3d6000fd5b505050602060405103516001600160a01b0316866001600160a01b0316149250505061030c565b50600061030c565b7f0000000000000000000000000000000000000000000000000000000000000000907f0000000000000000000000000000000000000000000000000000000000000000907f000000000000000000000000000000000000000000000000000000000000000090565b6000602082840312156107d857600080fd5b81356001600160e01b03198116811461030c57600080fd5b60008083601f84011261080257600080fd5b5081356001600160401b0381111561081957600080fd5b60208301915083602082850101111561083157600080fd5b9250929050565b60008060006040848603121561084d57600080fd5b8335925060208401356001600160401b0381111561086a57600080fd5b610876868287016107f0565b9497909650939450505050565b6001600160e01b031991909116815260200190565b6001600160a01b03811681146108ad57600080fd5b50565b600080600080606085870312156108c657600080fd5b84356108d181610898565b93506020850135925060408501356001600160401b038111156108f357600080fd5b6108ff878288016107f0565b95989497509550505050565b60006020808352835180602085015260005b818110156109395785810183015185820160400152820161091d565b506000604082860101526040601f19601f8301168501019250505092915050565b60006020828403121561096c57600080fd5b8151801515811461030c57600080fd5b60006020828403121561098e57600080fd5b815161030c81610898565b6000602082840312156109ab57600080fd5b5051919050565b634e487b7160e01b600052601160045260246000fd5b6000600182016109da576109da6109b2565b5060010190565b8183823760009101908152919050565b93845260ff9290921660208401526040830152606082015260800190565b60ff818116838216019081111561029d5761029d6109b256fea2646970667358221220af635eaadc007e26653ac3554e519ddb57df13edc41dd7f27d453cbf14f84aca64736f6c63430008180033",
  "linkReferences": {},
  "deployedLinkReferences": {}
}